:020000020000FC
:100000000C9446000C9434050C9434050C9434057F
:100010000C9434050C9434050C9434050C9434057C
:100020000C9434050C9434050C9434050C9434056C
:100030000C9434050C9434050C9434050C94B801DC
:100040000C9434050C9434050C9434050C9434054C
:100050000C9434050C9434050C9434050C9434053C
:100060000C9434050C9434050C9434050C9434052C
:100070000C9434050C9434050C9434050C9434051C
:100080000C9434050C9434050C943405F89400E475
:100090000EBF0FEF0DBF442708E001B90FE002B912
:1000A00051EE6CE7009902C057E66AE600E0009363
:1000B000C50003E30093C40008E10093C10000E021
:1000C00000938100509385006093840001E00093C9
:1000D0006F00F5E0E5E3EE0FFF1F789402991AC078
:1000E00000E005BD08EF06BD01E005BB05E005BD6C
:1000F000A89BFECF00E005BD02990CC001E040279F
:1001000029F005E000938100139804C000E00093FB
:100110008100139A0091C00007FF29C10091C60019
:10012000023431F4416005E00093810013981FC14F
:10013000033531F44E7F00E000938100139A17C11C
:10014000023559F440FD08C0F894F5E0E5E3EE0F00
:10015000FF1F00E00BBF78940AC1013329F4F89423
:1001600051EE6CE7789403C1053329F4F89457E60F
:100170006AE67894FCC00B3431F440FD03C0F89477
:1001800005D17894F4C00D3469F440FD0AC0F5E05F
:10019000E1EAEE0FFF1F18F401E00BBF02C000E020
:1001A0000BBFE5C0013469F440FD0AC0F3E2EBE3A4
:1001B000EE0FFF1F18F401E00BBF02C000E00BBF01
:1001C000D6C0093569F440FD0AC0FEE4E3EDEE0F48
:1001D000FF1F18F401E00BBF02C000E00BBFC7C057
:1001E0000A3469F440FD0AC0FAE8EBE2EE0FFF1FA3
:1001F00018F401E00BBF02C000E00BBFB8C00C3424
:1002000069F440FD0AC0F4EAE1E4EE0FFF1F18F4C0
:1002100001E00BBF02C000E00BBFA9C0073469F4C6
:1002200040FD0AC0F9ECE7E0EE0FFF1F18F401E013
:100230000BBF02C000E00BBF9AC0003509F097C0A9
:1002400040FD95C00091C00007FFFCCF0091C600A3
:100250000A3308F000270F70402E0091C00007FFFE
:10026000FCCF0091C6000A3308F000270F70502E13
:100270000091C00007FFFCCF0091C6000A3308F0D0
:1002800000270F70602E0091C00007FFFCCF009187
:10029000C6000A3308F000270F70702E042D0330BB
:1002A00031F0F0F0442455246624772419C0052D3C
:1002B000053031F0A8F0442455246624772410C07A
:1002C000062D013031F060F0442455246624772453
:1002D00007C0072D083020F04424552466247724D5
:1002E0008894002788249924AA24BB24440C842CB5
:1002F000880C880C840CA52CBB248A0C9B1C880CB5
:10030000991CA82CB92C880C991C880C991C8A0C57
:100310009B1CA62CBB248A0C9B1C880C991CA82C0B
:10032000B92C880C991C880C991C8A0C9B1CA72C36
:10033000BB248A0C9B1CA82CB92C880C991C880CFB
:10034000991C880C991C8A0C9B1C880C991C880C85
:10035000991C00E00BBF10F401E00BBFF5E0E5E3F2
:10036000EE0FFF1FE80DF91D10F401E00BBFB6CE34
:10037000FFB630E030938100509385006093840095
:1003800035E03093810002D0FFBE18950790302DE4
:100390003F3F39F4F5E0E5E3EE0FFF1F30E03BBFF0
:1003A00007903FE0032230E3032A202D0E942D0511
:1003B0002CE20E942D050790102C1694169416948A
:1003C00016943FE01322032230E3132A032A212D3F
:1003D0000E942D05202D0E942D052CE20E942D0546
:1003E0000790102C16941694169416943FE013223E
:1003F000032230E3132A032A212D0E942D05202DEC
:100400000E942D052CE20E942D050790102C1694B9
:100410001694169416943FE01322032230E3132A15
:10042000032A212D0E942D05202D0E942D052CE24E
:100430000E942D050790102C16941694169416946D
:100440003FE01322032230E3132A032A212D0E94C6
:100450002D05202D0E942D052CE20E942D050790D0
:10046000102C16941694169416943FE0132203222F
:1004700030E3132A032A212D0E942D05202D0E94EE
:100480002D050790102C16941694169416943FE0A0
:100490001322032230E3132A032A212D0E942D0563
:1004A0002EE20E942D05202D0E942D052CE20E9497
:1004B0002D050790102C16941694169416943FE070
:1004C0001322032230E3132A032A212D0E942D0533
:1004D000202D0E942D050790102C1694169416942A
:1004E00016943FE01322032230E3132A032A212D1E
:1004F0000E942D052EE20E942D05202D0E942D0523
:100500002CE20E942D050790102C16941694169438
:1005100016943FE01322032230E3132A032A212DED
:100520000E942D05202D0E942D050790102C169459
:100530001694169416943FE01322032230E3132AF4
:10054000032A212D0E942D052EE20E942D05202D2B
:100550000E942D052CE20E942D050790102C169468
:100560001694169416943FE01322032230E3132AC4
:10057000032A212D0E942D05202D0E942D05079074
:10058000102C16941694169416943FE0132203220E
:1005900030E3132A032A212D0E942D052EE20E940A
:1005A0002D05202D0E942D052CE20E942D0507907F
:1005B000102C16941694169416943FE013220322DE
:1005C00030E3132A032A212D0E942D05202D0E949D
:1005D0002D050790102C16941694169416943FE04F
:1005E0001322032230E3132A032A212D0E942D0512
:1005F0002EE20E942D05202D0E942D052CE20E9446
:100600002D050790102C16941694169416943FE01E
:100610001322032230E3132A032A212D0E942D05E1
:10062000202D0E942D050790102C169416941694D8
:1006300016943FE01322032230E3132A032A212DCC
:100640000E942D052EE20E942D05202D0E942D05D1
:100650002CE20E942D050790102C169416941694E7
:1006600016943FE01322032230E3132A032A212D9C
:100670000E942D05202D0E942D050790102C169408
:100680001694169416943FE01322032230E3132AA3
:10069000032A212D0E942D052EE20E942D05202DDA
:1006A0000E942D052CE20E942D050790102C169417
:1006B0001694169416943FE01322032230E3132A73
:1006C000032A212D0E942D05202D0E942D05079023
:1006D000102C16941694169416943FE013220322BD
:1006E00030E3132A032A212D0E942D052EE20E94B9
:1006F0002D05202D0E942D052CE20E942D0507902E
:1007000007FE05C02DE20E942D053FE70322102CB5
:1007100016941694169416943FE01322032230E3A5
:10072000132A032A212D0E942D05202D0E942D051C
:100730002CE20E942D05079007FE05C02DE20E94C5
:100740002D053FE70322102C169416941694169448
:100750003FE01322032230E3132A032A212D0E94B3
:100760002D05202D0E942D052CE20E942D050790BD
:1007700007FE05C02DE20E942D053FE70322102C45
:1007800016941694169416943FE01322032230E335
:10079000132A032A212D0E942D05202D0E942D05AC
:1007A0002CE20E942D05079007FE05C02DE20E9455
:1007B0002D053FE70322102C1694169416941694D8
:1007C0003FE01322032230E3132A032A212D0E9443
:1007D0002D05202D0E942D052CE20E942D0507904D
:1007E00007FE05C02DE20E942D053FE70322102CD5
:1007F00016941694169416943FE01322032230E3C5
:10080000132A032A212D0E942D05202D0E942D053B
:100810002CE20E942D05079007FE05C02DE20E94E4
:100820002D053FE70322102C169416941694169467
:100830003FE01322032230E3132A032A212D0E94D2
:100840002D05202D0E942D052CE20E942D050790DC
:1008500007FE05C02DE20E942D053FE70322102C64
:1008600016941694169416943FE01322032230E354
:10087000132A032A212D0E942D05202D0E942D05CB
:100880002CE20E942D05079007FE05C02DE20E9474
:100890002D053FE70322102C1694169416941694F7
:1008A0003FE01322032230E3132A032A212D0E9462
:1008B0002D05202D0E942D052CE20E942D0507906C
:1008C00007FE05C02DE20E942D053FE70322102CF4
:1008D00016941694169416943FE01322032230E3E4
:1008E000132A032A212D0E942D05202D0E942D055B
:1008F0002CE20E942D05079007FE05C02DE20E9404
:100900002D053FE70322102C169416941694169486
:100910003FE01322032230E3132A032A212D0E94F1
:100920002D05202D0E942D052CE20E942D050790FB
:1009300007FE05C02DE20E942D053FE70322102C83
:1009400016941694169416943FE01322032230E373
:10095000132A032A212D0E942D05202D0E942D05EA
:100960002CE20E942D05079007FE05C02DE20E9493
:100970002D053FE70322102C169416941694169416
:100980003FE01322032230E3132A032A212D0E9481
:100990002D05202D0E942D052CE20E942D0507908B
:1009A00007FE05C02DE20E942D053FE70322102C13
:1009B00016941694169416943FE01322032230E303
:1009C000132A032A212D0E942D052EE20E942D05B7
:1009D000202D0E942D052CE20E942D05079007FE78
:1009E00005C02DE20E942D053FE70322102C16942E
:1009F0001694169416943FE01322032230E3132A30
:100A0000032A212D0E942D052EE20E942D05202D66
:100A10000E942D052CE20E942D05079007FE05C0BF
:100A20002DE20E942D053FE70322102C1694169408
:100A3000169416943FE01322032230E3132A032A6C
:100A4000212D0E942D052EE20E942D05202D0E94B1
:100A50002D052DE00E942D0508951091C00015FF71
:100A6000FCCF2093C60008951895022818001100A5
:100A7000000000030500000000000000000000125C
:100A800012111310161112161211151836B602286B
:100A900019063600000000008726660000000016D8
:100AA00073000007080308111409112411100985A7
:100AB000B636022819331000000000034800000079
:100AC0000000000000000012130913111611101687
:100AD00011101520B6B6022819394900000000038C
:100AE0004800000000000000000000091109090290
:100AF0001405041805041236B636022823385500AA
:100B000000058803480000000007842248014707C9
:100B100007020609160807110808102436B602282D
:100B2000235212007800001307000001810000002A
:100B3000001666091105091116121013121111156C
:100B400036B6030209530011760000043500001484
:100B5000470000083600000813101311181313156E
:100B600010141584B6A403020953131019000000D1
:100B70000000001266000018820000081209151219
:100B80001712121712131415B6360306220032007C
:100B90000000000348000000000000000000000505
:100BA000020502840801031300000511B63603088C
:100BB0000307230000000003920000000000000073
:100BC0000000000806050581110406150101102426
:100BD00091B6030803140100000000034800000060
:100BE0000000000000000003060502830800011257
:100BF00000820819B615030803335700001437079D
:100C0000840000000020910000000082848185861D
:100C10000385840686838326B6B60308034714003B
:100C200000000001304517000000000000049000A3
:100C300082818200060000080103021536B603080F
:100C400003535207050000000000000723000020A6
:100C5000910098010081000410040210050505248C
:100C6000B6B7030804003104700000030500000358
:100C7000010000277100980004000503110303110F
:100C800008070422B6360308040710000000001409
:100C9000370000000000002457000002030407088A
:100CA0001310061007090715B6A8030804334300FC
:100CB00000000003480000000000000000000011D8
:100CC000100509031308111406061312B63603089B
:100CD0000440220000000003480000000000000063
:100CE0000000000607060581110205130100080334
:100CF000B6B60308045339000000000348000000A2
:100D0000000000000000000101028188058300103E
:100D10008483022192B60308050018000000000336
:100D200048000000000000000000008100008489ED
:100D300005878308888600B6B63603080506560080
:100D40000000000174000000000000000043138157
:100D5000840082860586860686858318B6930308F6
:100D6000051335000001300000329400000000003F
:100D7000001029818382848507828507838100068C
:100D8000A6B603080520130000065800000752000D
:100D90000006270000176400818301000700010698
:100DA0000102021836B60308052652000004571245
:100DB000200000000004700000127401028200058F
:100DC0001103000802020215B605030805333000BE
:100DD000001129013000000000078420390147007C
:100DE000060104051503030906050620B6180308C5
:100DF000054009054900002788000007240000007D
:100E0000000000040302080715080911071008363E
:100E1000B6B6030805464709410000000012540910
:100E20006500000888004905080209081411081324
:100E30000809131236B6030807192614110000001A
:100E40000000001266000010450245050602081069
:100E50001508101309110814B636030807193603CC
:100E600092000000000000036100000000387204DE
:100E7000080208111310071311110818B6350309D9
:100E8000054806054900003180000004820000008A
:100E90005200008284008586068386060082001543
:100EA000B6B603090554450000065312630251000B
:100EB00000083600001274810083828207038206D4
:100EC00000000120B6B603090601230078000000E7
:100ED000002384012000000000200982010000009E
:100EE000070003220206058307B603090614400023
:100EF0000006530915000000000836000012250204
:100F0000050104071208050908070925B6B60309F3
:100F10000621190941006516120000066300000051
:100F200000034304070208091411051311111315D6
:100F300000B6030906275702350000348500000477
:100F4000220000000001960809031111131010136C
:100F500015161314B6B60309065431000000000339
:100F600048000000000000000000000303060382A8
:100F7000090104118200091788B60309070110004E
:100F80000000000305000000000000000000000158
:100F9000010400860681000986830116B6B703099D
:100FA00007074800000000030500000000000000E3
:100FB00000000001810083890483832487840283E5
:100FC000B6B6030907274406270000074006900825
:100FD00044000000001372830082820105010106B3
:100FE00000040022B6930309074101101900000014
:100FF0000005021146000000001764020202050508
:10100000120502090706072291B6030907550000D9
:1010100000000000870596000000000000367604FE
:10102000080407081411091313131110A9B60309B2
:101030000759050313000015680000042200000092
:10104000002156070805060914121014131312B6CE
:10105000B6A103090800560941000015250000103B
:1010600025000000000735060904100915121013A9
:1010700013141402A0B603090807351882000003F0
:1010800092000018100000000000980809081112D2
:101090001313111514161408B6B7030908205200CB
:1010A00000000003480000000000000000000005F0
:1010B000060705810902071502020814B6B20309E2
:1010C0000834090000000003920000000000000046
:1010D00000000002000200860584001186830121C1
:1010E000B6B60309084047000000000348000000AE
:1010F00000000000000000828201838903848408CC
:1011000089888122B6B6030908472600000000221C
:1011100022000000000000000019608283828488A1
:101120000486872985848308B6B603090854041009
:10113000980000026100001206000001561421818F
:101140008283828502008106810201B688B6030986
:101150000900430549000000000690042200000039
:1011600052250083818282810900820904030017CD
:10117000B6B6031006573700000980004318510027
:101180000014640000014704040208051603081354
:1011900007070512B6B20313160425015600000016
:1011A000000000018100000052328481018282002F
:1011B0000804820702010220B6B6031316110407C1
:1011C0008401961350015610250104000000980177
:1011D000008100040903020804060615B6B60313CD
:1011E0001617420078000036600376000000000009
:1011F0000000490103000205090905090608090361
:10120000B6B7031316242100000261161200000075
:1012100000036600001519050502060912090511EB
:1012200008090918B6B6031316305900000000016A
:1012300074000000000000000038230606030609C1
:101240001411091111111216B6B6031316573300F3
:101250000000000348000000000000000000000142
:10126000000501860781001300810215B6B603133D
:101270001704120000000003050000000000000039
:10128000000000000100828805838209868600B67E
:10129000B6B603131710500000000004350000001C
:1012A0000000000000000083828183900286810993
:1012B00089860019B6B60313173046000004572379
:1012C00052018800000261010401968384820000BB
:1012D0000484830400000024B6B6031317372500E6
:1012E0000000000000097200600000005228928196
:1012F000820081010802810800030517B6B60313B6
:10130000174403117602610043009412670209003A
:1013100000083301028202031105011007050417BA
:10132000B6B6031317504216470130000000941858
:101330007000000000107804030007081308030978
:1013400008060717B6B603131757200862000000F7
:1013500000160008440000000014210208030905DB
:101360001607051108061117B6B60313180359031B
:101370001300000000109804220000000024020561
:10138000080408091410081308091201B6B603135B
:101390001810370000026100000000000004700017
:1013A00000387207080608081409071309081419F9
:1013B000B6B60313182354000000000348000000D1
:1013C0000000000000000004060404820901032755
:1013D00000000684B6B60313183033000000000383
:1013E000480000000000000000000002020201842A
:1013F0000800001383830219B6B6031318570714A5
:101400009000000348000015080000041800008642
:101410008382848606838305858282B5B6B60313EC
:101420001903450941000004792039102500000006
:101430005200008582818300078182060000822598
:10144000B6B60313191024015600000000316802DB
:10145000410000000013230000810200100001067B
:10146000040205B6B6B6031319170200000980007E
:10147000000000000018300000176400028203031F
:101480000902050802060515B6B60313193019003E
:1014900000052200430094000008360000230306E4
:1014A000070107081608061310080901B6B603134A
:1014B0001936580862000000002666084400000043
:1014C00000058806090611101509091308101110E6
:1014D000B6B60313194337000000000130000000C6
:1014E000000000000000000808051308171012167D
:1014F00011091210B6B603131950150000000003AD
:10150000480000000000000000000007100508016E
:101510001305081603030917B6B6031320101000AD
:10152000000000034800000000000000000000016F
:10153000020101870600830983860212B6B60313EF
:1015400020164900000000034800000000000000D1
:1015500000000082830284860287830687848325B5
:10156000B6B60313202328156800000000210215D9
:101570006800000993004983818286870286860875
:10158000888883B7B6B60313203006000003921193
:10159000760000000002612300009882838481822B
:1015A00005830007838183B6B6B603132036440053
:1015B000000849000003130060135900001225833E
:1015C000008281000782820700820316B6B60313E9
:1015D0002043230392000001303702048200000000
:1015E0000000490001820202110000100202020400
:1015F000B6B603132056400000000006100062003B
:1016000000000029800343020602050811050610A8
:1016100004070811B6B603132123140000000003C9
:101620004800000000000000000000070605090156
:101630001306071301021114B6B603132129530030
:10164000000000034800000000000000000000044B
:10165000050504831002031300000620B6B6031428
:101660000009170000058800873764000010450056
:101670000000000205040705130306120204050119
:10168000B6B60314001556000004570000012500EB
:101690000007323503000006050209061705091286
:1016A00002071017B6B6031400223400000000032E
:1016B000920000000000000000000007080309027B
:1016C0001405071404040801B6B6031400355100CC
:1016D00000000003480000000000000000000004BB
:1016E000020201850981001184830422B6B6031425
:1016F000004230000000000348000000000000002D
:10170000000000000100008605848109878600171B
:10171000B6B6031400490800000000039200000060
:101720000000000000000081008181890586840797
:1017300087860118B6B60314005547000000000163
:101740003000000000000000000000848600859347
:101750000290860791898421B6B603140102250000
:101760000000650000454900000000135900008496
:10177000878384880691830592888620B6B60314F1
:101780000109040000052202171035000007841328
:1017900007024584838681860889810684838419AB
:1017A000B6B603140115420000037600002352016F
:1017B00020041813070049838185010012858106E2
:1017C000848283B6B6B603140122210000071901F2
:1017D00030247800001098073201960000000200C3
:1017E0001300040700010015B6B603140129000018
:1017F000000196004326030000026119860098024A
:10180000058207061500052604050583B6B60314F0
:101810000135380000056400433388000005750574
:10182000750049050502080616040911050706B1E9
:10183000B6B6031401421600000196000022900083
:10184000000209172501470807041010160509149E
:1018500007051008B6B603140148550000045700E8
:101860000021960000073213070000080906141033
:101870001808121407060909B6B6031401553400F6
:101880000000000348000000000000000000000805
:10189000100712051606091505051113B6B603142F
:1018A00002021200000000034800000000000000D7
:1018B00000000005060908001505051703020803C6
:1018C000B6B603140215290000000003480000000A
:1018D00000000000000000010106008406820127CC
:1018E000858403A8B6B60314022208000000000392
:1018F0004800000000000000000000000000828896
:1019000004838308848601B6B6B603140235250025
:10191000000196000035130000036614640049833B
:10192000858100850790830791898206B6B60314E6
:1019300002484200000522004314740000062715E7
:10194000680245810281030111810107810202229F
:10195000B6B60314031516000005220000279200F6
:101960000008880888004909100414111908111585
:1019700008081100B6B603140321540000026100E8
:101980000021330000031323520000101108161029
:101990002009141407101114B6B6031403283300D9
:1019A00000000003480000000000000000000010DC
:1019B0001209130516081216060812B6B6B6031455
:1019C0000335110000000003920000000000000039
:1019D000000000081007100212050716040309038F
:1019E000B6B6031403415000000000034800000095
:1019F00000000000000000070605050011030514A3
:101A000000000719B6B603140401460000091500CA
:101A100000216400001359120200008183028286B3
:101A20000386820989878107B6B603140408240057
:101A300000026100001380000003662823000000FC
:101A4000838181860788830986878116B6B6031449
:101A50000415020000006500000784000000522405
:101A6000050441820081018111840010818381B6C7
:101A7000B6080314042141000000650043178800E4
:101A800000000021960539000281020011000211B8
:101A900082010126B6B60314042820000004570072
:101AA0000004700000041825090441020201070423
:101AB0001301031102020420B6B6031405144900F1
:101AC00000000003480000000000000000000004C7
:101AD000050505840800032682810584B6B6031433
:101AE000052128000000000348000000000000005D
:101AF0000000000102020085088381288385048399
:101B0000B6B603140528060000000003920000008A
:101B10000000000000000000810283870583832904
:101B200083878285B6B60314061554000005880025
:101B3000003670000008360000034304070409075C
:101B40001605081307061001B6B603140647490028
:101B50000000000348000000000000000000000139
:101B6000020501840781001183830718B6B60314A8
:101B70000654270000000003480000000000000099
:101B80000000000000020087058583098585001795
:101B9000B6B6031407142200000130021702190020
:101BA0006000003764014783868284850588830549
:101BB000878583A5B6B6031408540005490065005F
:101BC00000291705430052000009318483830081F6
:101BD0000785830684818305B6B60315051247077A
:101BE000050000000030110844000003130000024B
:101BF000050208051407051207041016B6B60316E9
:101C0000041445000007840000028200001098239D
:101C10000004410504810703160207130505041596
:101C2000B6A6031604181300001307039201560109
:101C300020198616730049030501060716050611CB
:101C400004050901A5B603160524050000071903BC
:101C500005069000001045177700988385838182E0
:101C60000884830687848127B6B6031605304400AE
:101C70000004570130000000000575256203920141
:101C8000008582820881010783028326B6B7031686
:101C900005504000000065000002190000000035FA
:101CA000030245030301070513040623020305028B
:101CB000B7B6031605532200000000021741410089
:101CC00000000012020000020502080513020511BF
:101CD00002020820B7B603160603560000084901A1
:101CE00074000000001307224800000507041105D6
:101CF000150410150505101595B6031606171300E3
:101D00000000000348000000000000000000000583
:101D1000040204831000041200000512B699031691
:101D200006235200000000034800000000000000ED
:101D300000000002010202860900011184830206EC
:101D4000B6B703160630300000000003480000005C
:101D50000000000000000082810282890487811156
:101D600083830020A6B6031606370900000000038F
:101D7000480000000000000000000082838285917E
:101D80000487862789898386B6B0031606434800F0
:101D90000007840130448600001045005200008690
:101DA000858387920491880593928523B7B703169C
:101DB000065026007800000000021901810000365C
:101DC0006001478485868586059085268988868377
:101DD000A9B60316065705000007840174301100E8
:101DE000001045000000498584830086078881062D
:101DF00087838484B6A6031607034300000000000F
:101E00000013490000000033980245830085828357
:101E10001081812783830184B7B60316071700005A
:101E200000000002613796000000000836004902F9
:101E3000028206041201031102020203B69803167D
:101E400007233900000719000000000000120224D7
:101E5000570539030381050416030524020304858D
:101E600095B603160730170000058800002384008C
:101E70000008361568000007050209051804091353
:101E800002050801B6B6031607365600000784019E
:101E900030304300001254000000490607040904D2
:101EA0001606081303040811B697031607433400F7
:101EB0000000000392000000000000000000000588
:101EC000080407031304081303040910B7B7031623
:101ED000075013000000000348000000000000004D
:101EE0000000000206020383100101128182082211
:101EF00092B6031608232500001045013016000095
:101F0000001620036600008485868688058786057E
:101F100088878617B6B603160836420156000000B9
:101F200000329401810000109800498200850081F0
:101F300011820007838200B6B720031608432100F0
:101F40000002611481000000000156146401960033
:101F50000000000010810208010001A1A0B60316D4
:101F60000909550000000000000000000000000109
:101F70005600000707040907150710130707092073
:101F8000B6B603160916340000000003480000002E
:101F90000000000000000005060305001005061300
:101FA00001020819B6950316092312000000000368
:101FB0004800000000000000000000030205028449
:101FC0001002011382810505B1B7031609295100DA
:101FD00000000003480000000000000000000000B6
:101FE00002010086068281118384011996B60316C8
:101FF00009362900000000039200000000000000E4
:102000000000000181818289058300078883022006
:10201000B6B603160943080000000003480000009C
:102020000000000000000084830082920285860682
:1020300089900017B6970316094946054900000024
:102040000000000482000038170000858683869017
:102050000387880791898508B6A8031609562509BC
:10206000410000000002190844000018820049865F
:1020700083848586068585258986820695B603161E
:10208000100303109800000610028210860000065C
:102090002701478383858300078383068283812802
:1020A000B7B6031610094205490000043500310493
:1020B000220000203900988281810003100000096D
:1020C00001010104B6A603161016200000078416AD
:1020D0001202510000109800000000000381020568
:1020E0001402030802050303B7B5031610225900B2
:1020F000001241000001250000177700001029029E
:1021000004000705150405110705052392B60316FB
:102110001029370000000000002541006000000089
:10212000002451050402080914080725060808843C
:10213000B6B603161036161411000000001443132F
:102140008700000000112707070511091611121555
:1021500010121101B696031610425400000000033D
:102160000500000000000000000000080805090745
:10217000161110161011120195B7031803542200FE
:1021800000026101303952000002610836029405F4
:10219000040108061305081105050816B6150318ED
:1021A000052510000010450000213300001516021F
:1021B0006100490403000405130703100707050322
:1021C000A5B6031811052810190000047900940918
:1021D00065000016730147838385828409868526FE
:1021E0008784828226B60318111206000009800334
:1021F0004800000000141100001274838184010063
:102200000683002883818286B100031811184510C7
:10221000980065008700311508000000001519833B
:10222000018200810781810801810086B63603188A
:1022300011320200000000074000000000000032E0
:1022400041044101040004071604030905080813AA
:1022500036B603181145190000000000004486003E
:102260000000000000078405080608091608072575
:1022700010131184B23603181151570000000003E7
:1022800048000000000000000000000809061007D8
:102290001610101509091117369803181158360031
:1022A0000000000305000000000000000000000521
:1022B00006080601100406130101082436B50318A8
:1022C0001218310000000003480000000000000068
:1022D00000000000000083860486810886860002D4
:1022E000B636031812251000000000030500000098
:1022F000000000000000008381818689018984102C
:102300008689002212B6031812314807050000150D
:102310006800000482000000001715818483828712
:10232000018486058889840836A303181238271487
:10233000110000052203451387000000000490856A
:10234000838482860783820585818221B6360318BD
:1023500012582200000000039200620000000003F7
:102360006639700202830205120503080306051987
:10237000B73603181324560000000003480000007D
:1023800000000000000000070904070512100814EF
:10239000050614130036031813313500000000033E
:1023A0009200000000000000000000050505050087
:1023B000100504160400081836B10318133813006A
:1023C00000000003480000000000000000000004BE
:1023D0000205028308000212008108A8B61803183B
:1023E00013580900000000039200000000000000E4
:1023F000000000818383868901888309868685128F
:10240000B63603181404480392000008270000039E
:10241000010000000025988685838489058588054C
:102420008989851936A20318141805149001960895
:1024300027025116890052010400498401828281D9
:102440001082830883830005363303181431220079
:1024500000045700000125000005750000357800D4
:1024600002000205110204250504078336B1031892
:102470001438000000000000000188012000000066
:10248000003137030500050614060411070605226E
:10249000B603031814443907050000095800000862
:1024A00044000010450147060502070814080612FB
:1024B00005070812363603181457560000000003AB
:1024C00048000000000000000000000709040904A3
:1024D0001207081307051112B73603181531080043
:1024E0000000000000000000000000000000008369
:1024F000838386920087880889928513B620031803
:1025000015374700000980130700000000188200FB
:102510000006378386838386038487058586821930
:10252000B6360318153748086200000174006207C8
:102530002400000000205885838383850485850559
:102540008384010712B60318155104000001960593
:102550002218510000015600001764828382008116
:1025600007008308010002B136B70318155742006F
:102570000002610653025100000156183005880020
:10258000018302041203020805060384B636031809
:10259000162416023500002135000003010000005A
:1025A00000117606080511091310071413131317E9
:1025B000B6350319133932000010450653000000E8
:1025C00000162000000588020300060612060325F7
:1025D00006050584B68603191346110000000000A5
:1025E00000332500000052000019110506010906FC
:1025F0001408062408070984B3B6031913592800E0
:102600000000000348000000000000000000000679
:10261000090408071307081407051122B6900319C7
:10262000140607000000000348000000000000003E
:102630000000000605060600100306130102081537
:1026400082B6031914124500000000034800000080
:1026500000000000000000020402048408010112CE
:1026600082810415B68403191419240000000003A4
:102670009200000000000000000000000002008541
:10268000078381118585012183B603191426020071
:102690000000000392000000000000000000008322
:1026A000830282860487840985878119B68103198C
:1026B000143240000000000305000000000000008C
:1026C00000000083858186920289870889908308AB
:1026D00084B6031914391900001307000000000024
:1026E0000020390000215683868484890589850568
:1026F00089878218B6000319144557000013070391
:102700004805020000198602090000858283818342
:10271000068683058685819486B6031914591500AB
:10272000000980008702820060156800000833817C
:1027300000830003100001090101002488B6031979
:102740001512321254019606530000108600000341
:10275000660294020500070513080624050807838E
:10276000B1B60319151910000006531045000000FA
:1027700000078400001274050802090813090811F3
:102780000911111592B603191525491254000000BC
:10279000001819132700000366000005100508093A
:1027A00014121116111014A9B6900319153227002E
:1027B00000000003480000000000000000000008C6
:1027C000090508051308111608081206B6B60319FC
:1027D000153906000000000348000000000000005A
:1027E000000000070605050011050514030408167E
:1027F00087B6031915454400000000034800000097
:10280000000000000000000504030283080101131A
:10281000810005A7B692031916453100001600067F
:1028200097000000601725000002940206020909C3
:102830001410052410080884B7B6031916520905A8
:1028400049000015680000036100001150000006F7
:1028500008051009181208131112110192B6031974
:102860001725220000000003050000000000000002
:1028700000000003010202860681811085840206A1
:10288000B1A9032103592000000282196000310020
:102890000000521098019600050205051105061169
:1028A00008100812B6B70321035929000005880251
:1028B000170031000006270000294102020003062C
:1028C0001104060908110517B6B603210359401073
:1028D00019000001740972102500000052137200E3
:1028E000050105091404051105070803B6B70321FE
:1028F0001854200078000000000250012000000061
:1029000000450981838485860100872600000284B2
:10291000A3B6032119005914110094004300311685
:1029200089005202610784848181820003828307C7
:10293000000000B6B7A7032119141609410094013D
:1029400030003108440000000018620002820001DB
:102950001002000803020521A6B603211940500009
:102960000006582483000000000888000000980535
:10297000100607071412111414131221B6A0032114
:1029800021003207050000135001880543000009AB
:102990009300000505020810131005240907088498
:1029A000A9B1032121071100000065000004700097
:1029B00000005200003186070705101114090913A1
:1029C00009101001B7B403212113490000000000D1
:1029D00000000000000000000000000608080908D0
:1029E0001510091509111321A4B70321213345003E
:1029F00000000003050000000000000000000001CE
:102A0000020504840781002583830285B6B0032173
:102A100021402300000000034800000000000000E7
:102A20000000000000008285048282108483012659
:102A3000B7A803212147020000000003480000005E
:102A400000000000000000828281859103878208D7
:102A500087860008A9B60321215341000005220002
:102A6000001223000004700000274584850083893C
:102A70000286850884868123B6B20321225327006B
:102A800000000003920000000000000000000006AB
:102A9000080607001106061502020903B7A0032164
:102AA00023000500000000034800000000000000B3
:102AB000000000040504030009010212810007A5BB
:102AC00099B7032123132300000000030500000031
:102AD0000000000000000000000000890584831150
:102AE000868300A1A1B70321232001000000000379
:102AF00005000000000000000000008383008392B6
:102B00000285860789878391B7A203212326400483
:102B10007000000000470505430000000000008130
:102B2000848383880587870887858407A6B7032160
:102B300023331800001372026100000000203907DF
:102B400032019683858200860587860584838323E8
:102B5000B6A0032123463500780094013002190005
:102B600060000027710294008100020209810009BF
:102B700000000323B799032123531400000000151C
:102B80006800000000000023520049000300010219
:102B90001004040800020415A1B7032123595204AC
:102BA0007000650000006204220052266601960251
:102BB000020008031702032504020484B6950322C9
:102BC00000063101560065000041090301000000C4
:102BD0000000000504021008170608120507090185
:102BE00095B40322001948000000000348000000CB
:102BF000000000000000000608050905140708147D
:102C000004051011B6A003220033050000000003E4
:102C100048000000000000000000000502020582DC
:102C2000080003128100041798B7032200394400FA
:102C30000000000348000000000000000000000148
:102C4000000300870882822784850385B6A00322BB
:102C50000046220000000003050000000000000004
:102C600000000081000000880386840985878116A2
:102C7000A7A70322204834000000000348000000FA
:102C80000000000000000082830083900586850814
:102C900087888216A1260322220138000000000343
:102CA00048000000000000000000000305030300CE
:102CB000080102130081052017A403222248060000
:102CC0000000001176003100000000000023030125
:102CD000018300050601810800000424B7200323B6
:102CE00000142800000000004300310000000036FE
:102CF000600196838184810006008227010002849E
:102D0000B6270323002107000010450000009400AF
:102D10000017251411009801028202020701000722
:102D200000000328B681032300410200000784004D
:102D30000009410000099300001470020504060513
:102D40001208061409080836B62203230047410674
:102D5000270000104500000724000000001568044B
:102D600009040707150807130808102236910323E2
:102D7000005419000000000348000000000000009B
:102D800000000008070208041307081306041216BF
:102D900094250323010736000000000348000000CB
:102DA0000000000000000005020203840800021277
:102DB00083820620B736032302004500000000038B
:102DC00005156800000000245701960002820204E5
:102DD0001404051205080603369503230333060081
:102DE0000011290000003100001098156800490208
:102DF000048107051503051004040617883603230C
:102E000003374418820065000005961749005201F7
:102E10005601470205000505140505110809082299
:102E2000B302032402324900780000013019130074
:102E30000000002248000081030004021102020881
:102E40000204031436A00325030708078400650065
:102E500000000007240000156804900002820408A6
:102E6000120401110504070312B40325030812001C
:102E70000000000305354501200000000003920416
:102E800005810208120604110705052084B70326F0
:102E900004372700000392034800000000052200C9
:102EA0000008828382818688048784088785831648
:102EB000A6050326045044000009800000156800A0
:102EC0000015160366034381838583810683850687
:102ED000858781232991032605040100000196348A
:102EE000850282000001560000000000000000057D
:102EF0001300000700020213981503260530360060
:102F00000007840000072100000993000019110741
:102F1000090308091606091406091012831203266C
:102F2000062343000000650000062700000000366D
:102F30000701968483858381088384258482828324
:102F40002883032606302205490000004317880322
:102F50006200001150000081838200000900000718
:102F60000000002289290326063701000000000026
:102F7000002102000000000000313700018303013E
:102F80001102000800000024330003260650170732
:102F90000500000653094108440000062701960475
:102FA0000500050516060512070807133104032658
:102FB00006565600000522000037960000088801DA
:102FC0000400490706011010160607141308122002
:102FD0008210032607033400000130008755520099
:102FE0000000520052004906090510091509101584
:102FF00006061110232203260716510000000003C5
:103000009200000000000000000000050805090013
:103010001202051300020912143003260756420457
:10302000700000004303450603000025620049814B
:103030008284828407858108830000059026032608
:103040000816380000084912630000000009410713
:10305000840000010400060712060810040406207C
:1030600081310326082317078400000217178808F8
:103070004400000052053905050208101605082510
:103080000507088330050326090308000000000334
:10309000480000000000000000000001010300875C
:1030A00006830010858302232403032609094500B3
:1030B0000000000348000000000000000000008144
:1030C00000008389048684098687001784210326EB
:1030D0000916250784000000000752072400002677
:1030E0006600008383828388038885078989842218
:1030F0001927032609294200001045000011290064
:10310000001568062700008183830084088300255A
:10311000838381848629032707512300000000034D
:10312000480000000000000000000006070506003F
:10313000110507130102082211A603270804400005
:1031400000000003920000000000000000000002E8
:1031500002020087068181118484022228910327BC
:10316000081117000000000392000000000000009A
:103170000000000000008488068681278483812364
:1031800092990327102409000000650000276000C1
:103190000000001725024505060007101503071259
:1031A00002040914300403271037260000104500DC
:1031B0000017250000156802090000090804101016
:1031C00017101015070610811332032710515500F0
:1031D00000000003480000000000000000000004A0
:1031E00002050484070100138281042300250327BC
:1031F00010572100000000039200000000000000B2
:1032000000000005060608001202041300020783EE
:1032100035010327111717000000000348000000C4
:1032200000000000000000820000828803868209FE
:103230008786002102140327113034000000001497
:103240003700000000000026660000830181850031
:1032500004838308010000192903032712102500A5
:1032600000019605660000000003130000284308D3
:103270000605101013080815081012128886032777
:103280001217040000000003050000000000000009
:103290000000000809051010141110140807132469
:1032A00014A9032712234200000000034800000075
:1032B00000000000000000070707060311050714BF
:1032C000050211309512032712302100000000037F
:1032D0004800000000000000000000040604030194
:1032E0001201052700000504319303271236590007
:1032F0000000000348000000000000000000000380
:10330000020202860801001184840313A129032705
:1033100012433800000000034800000000000000D5
:103320000000000000018285048583118684000767
:1033300085880327125016000000000000000000DE
:1033400000000000000000830000849102858607D1
:1033500089898113A6880327125655180300000097
:1033600000056417490000000011278386818188C9
:10337000048586058381832381000327130333009B
:103380000000000000037600000052010437748141
:1033900083838483098383268586828415A70327F4
:1033A0001310120627006506970345084400001213
:1033B0000200490001810000098382070605041606
:1033C000A6160327135003000000000305000000A9
:1033D000000000000000000808061006130910167F
:1033E00008101221A81903271356420000000003F9
:1033F000480000000000000000000008060407006C
:103400001004061404051214248803271403200052
:10341000000000034800000000000000000000045D
:103420000504038308000312810005009535032776
:1034300014095800000000034800000000000000CC
:10344000000000020103018605810011838402232C
:1034500026820327141637000000000348000000EE
:103460000000000000000001810082900485832894
:103470008686008496000328044005000009800029
:103480000004390000130700001568000200040062
:103490001200020900040528368903280446430760
:1034A0008400000871000008440000162001470253
:1034B000020004061604051007080511A7270328B3
:1034C00005000008620000000016941025000000AE
:1034D0000009800707050908160809130905128263
:1034E00032A2032805263400000000034800000033
:1034F000000000000000000503050301070001248F
:1035000002000583B32103280533130000000003E4
:10351000920000000000000000000001010300868E
:10352000070000108582022222A7032807524200CA
:1035300000013023520188000001560000083305C5
:10354000030105061306061105090622A413032824
:10355000075920062700000000087804820000199F
:1035600034024504080209071708081108080988E9
:10357000A333032808055900000392152500000015
:103580000003131882000005090508091807111324
:1035900010111197143203280812370000039220EB
:1035A000040000000007320000098008080713111A
:1035B0001911111310101322198803280819160065
:1035C00000000003480000000000000000000007A9
:1035D0001106090514060814070309169536032871
:1035E00008255400000000039200000000000000C5
:1035F0000000000807030902120307130202101754
:1036000013830328083233000000000392000000F7
:1036100000000000000000020404038508000110FF
:103620008300052107350328083912000000000334
:1036300048000000000000000000000002020187B6
:103640000583822384850083A6240328084550002F
:1036500000000003050000000000000000000081E1
:1036600000008392028384078784832524840328AF
:10367000085228039200000000307403620000002A
:103680000016178283838386078485088689002035
:10369000A617032817570700000000034800000082
:1036A00000000000000000000101818906838309F9
:1036B000878700970626032818034500000849015C
:1036C0003041090000109802610000838200838766
:1036D00002848607868282130506032818102400B8
:1036E000000000000019130000000000002794846F
:1036F0008100838206838609858600229427032819
:1037000018302000000980000014740000156800C3
:103710000007350103810104110203110707052089
:103720008130032818365800000261113200000071
:10373000000209240502940203030506120805107D
:10374000030308120009032818433700000130233F
:103750000900000000000003130392050605070896
:103760001407071309071209922403281850151289
:103770005400000000109813270000000010780586
:10378000100509061613081410061220171703282F
:1037900019300600000000030500000000000000D2
:1037A0000000000082008289038685088886002741
:1037B0000102032819364500000261008738900095
:1037C0000003130000073581840085850584842764
:1037D0008584838382050328194323000001960012
:1037E00000392100000156000008338282838300E3
:1037F00008838526828400859011032819500200D1
:1038000000006500002854000000000000166681DA
:1038100081830101078200068100020589220328B5
:103820001956400000065300001568000007840088
:103830000012258101810102110002080204052104
:10384000121303282003190000000000001756007F
:10385000000000000026960006010505120205087A
:103860000506052202000328200958047000650699
:103870005300000422000000002303040600060495
:10388000140304110808059886050328201636003D
:1038900000006514810000000000000000171507FB
:1038A00006020706150908130809091888110328D4
:1038B0002023150000078415250000000010980043
:1038C0000000490808041010160808140809109090
:1038D0000323032820295300000849000002510057
:1038E0000009411777000007090710141708111580
:1038F000100716961201032820363100000000033D
:10390000480000000000000000000007090507044F
:103910001108111507071102901803282043100001
:103920000000000348000000000000000000000646
:103930000506050009020513000108041301032808
:10394000204948000000000348000000000000007B
:103950000000000204030483110000118100051817
:10396000121503282249220156000000872070000A
:10397000600000000022540082000085060000263E
:103980008383828488040328225601000000650096
:103990004339520000000007320049820001020250
:1039A000070200070083022592150328230239032A
:1039B00092000021350000036200000470009800AE
:1039C00005010007090301250406048413120328D6
:1039D00023091600780784000014430120146404AE
:1039E0007001470005020408120604240506068338
:1039F00089870328231556039200000000244703FB
:103A0000620000062702450309040809200808127D
:103A1000080411138811032900403700000915011B
:103A200074000000000993177700000404000308E5
:103A30001204051208101213858603292057461810
:103A40000300000087000018700000000004410916
:103A500010051111161310141111161484100329D6
:103A6000212420000000000392000000000000005C
:103A70000000000205040185100101118200050605
:103A80000013032921305900000000034800000002
:103A90000000000000000002000181880481811103
:103AA00082840017838803292137371725000000F7
:103AB0004300001689000010980049010000838827
:103AC0000483832700000007851003292150540038
:103AD0000000000000006200000000000037250028
:103AE00000820082078181088185001793100329D5
:103AF00021573302350000178600000181000005C0
:103B000075034302028101010802010800820115C8
:103B10000192033001075600000065139400000075
:103B200000000000001862020000020211020109F8
:103B30000000051806020330010806000001961572
:103B40006800000000010400521078000102020227
:103B50001103001102000319080103300112420091
:103B60000013070871050200001516000000490443
:103B70000400060613040311050307211608033089
:103B8000094136000000000348000000000000006A
:103B9000000000010404038408000111838202066E
:103BA00088210330094814000000000305000000CC
:103BB00000000000000000018100008703858409E7
:103BC00083850220888903301001310000058800B8
:103BD00000000000000732000026968181838402E5
:103BE0000782820700000017888103301014480004
:103BF0000005881307000000001150000006860031
:103C0000030002000902000902000215042103302A
:103C10001021270000045717420188000005750095
:103C2000000392030201050711050510060705159B
:103C30008306033010412200000000000009090043
:103C40006000000000313706070609051906081252
:103C50000807111701030330104801141100000078
:103C60000000001508000000001372101005100776
:103C700013130816111611012008033010544000C8
:103C800000000003480000000000000000000008E1
:103C90000808090413080915050712211017033035
:103CA000110118000000000348000000000000009F
:103CB00000000006050605001103041503020904AF
:103CC00019100330110757000000000348000000DE
:103CD0000000000000000003030502841002051329
:103CE00000010520082003301447080000013015AA
:103CF00025000000000000167300980201820002F7
:103D00001000820800000119098303301500250204
:103D100035000000000972018100000052215603A5
:103D200004000705120204110609042303020330EC
:103D3000150703000009800043090900001464000E
:103D40000003430408020910150806250910088419
:103D50001186033022583805490000000023210451
:103D60008200001045000006090511051511111506
:103D700008111313008203302325120000000003F2
:103D80004800000000000000000000040405048159
:103D90000800011381820522000003302331510005
:103DA00000000003480000000000000000000005C3
:103DB0000201008405830010858101180588033005
:103DC0002338290000000003050000000000000067
:103DD00000053900820282890486840986880008E9
:103DE0001400033023450800000849000005640062
:103DF00000135914640000828300818307868307BF
:103E0000878682158104033023514600000000009C
:103E100000436000600000041800988282008185E1
:103E20000682832686850084860103302358250078
:103E300078000000000533018100000000303900E7
:103E400000000100100000088181011402180331F4
:103E500000050300000392196000000000036600E3
:103E600000068604028102001105031005060514F0
:103E700016010331000607000006532265031300F4
:103E80000009412091009800000203021202030879
:103E900005080513100203310006350000019612D3
:103EA0002000000000010418820000000201020549
:103EB00012040110070603140602033100245906F8
:103EC00027000003480000084400000000205807B5
:103ED000080411111808131208101324911003314B
:103EE0000038160156000001301223024100000084
:103EF000000098091008130717111316110815115F
:103F00000513033100513300000000034800000096
:103F1000000000000000000906040500110605135A
:103F200001031123001303310104500000000003BA
:103F300048000000000000000000000001030088AD
:103F400005838211868602160111033101112800B2
:103F50000002612047000000000575000017648121
:103F600083028387048782088884011886090331C5
:103F70000118070000000027880000000000000072
:103F800000166682008183870785830900810025EA
:103F90000406033101244614900000000013171298
:103FA00006000003660049008200000009000008C6
:103FB00082810086812203310131240000124100F8
:103FC00000166200001620000003438102810005F4
:103FD00012000208000004250010033101405700C0
:103FE00000098000001066000013070366009801B6
:103FF0000401030613020412070707900315033197
:1040000001444102350000239602190362000007B3
:1040100084073503040206071405052407070883EF
:10402000001503310151200000000011760000004E
:1040300000000000002549080702070516090813BB
:1040400008101120130403310157581333000003E3
:1040500092000010860000000007350809040910CE
:10406000151108151413121301130331032302024F
:10407000350000091501880301000014640294044E
:10408000090512111611111205050811131003313B
:104090000330570392000000000721036200000074
:1040A000002303080704111116110815101014201D
:1040B0000013033103373614900000000000001590
:1040C0000800000888004909090611121713131483
:1040D0000908161611870331034415000000000378
:1040E00092000000000000000000000711111306FC
:1040F00014111115090914080286033103505300E5
:10410000000000034800000000000000000000095B
:104110000806080112060916030511120387033168
:1041200012221900000980108900000000125400BA
:104130005200490204000309120303110507051484
:10414000840003311228580000013001303670001D
:10415000000052104500000206020508130806116F
:104160000909062007810331123536000001960047
:104170000018510000010415680196030607081095
:1041800015100811050408100608033112553200F5
:1041900000000003480000000000000000000008CC
:1041A00010101110161211151108132204080331F2
:1041B000130210000000000348000000000000008F
:1041C0000000000809070703110607140303091973
:1041D00008000331130849000000000348000000F4
:1041E000000000000000000605070600100204158C
:1041F0000000081105090331131527000000000312
:10420000920000000000000000000004020403848B
:10421000098101118383032703020331132206005E
:104220000000000348000000000000000000000142
:1042300001018186058481108586002615020331DF
:1042400013284417250000000018821629000000DA
:1042500000049083000082860283810784000107A6
:104260008110033113352300000326148100000060
:10427000000470000016178381008385078283097C
:10428000818481170381033113420100001045002E
:1042900000000000001202167300008101000106F8
:1042A000130000090183000812060331134840007F
:1042B0000000000000225800000000240500498191
:1042C00002020202090003090206041587090331EC
:1042D00013551800000196143703760000015600AC
:1042E0000011760104010307110503090505070202
:1042F0008286033114015700000980004303450002
:1043000000099308880049050501071114070724CF
:104310000910118410880331140835000009800049
:1043200000021900001411162000490606050813A2
:104330001507081408061321031603311415140376
:104340001300000000000003620000000027450683
:1043500009031107161111140708131685010331FB
:104360001421520000019601305051000003130047
:10437000000343100908111315131323101413839A
:1043800011840331143510000000000348000000C0
:1043900000000000000000080808100111050614C4
:1043A000040310128510033114414800000000037B
:1043B0009200000000000000000000050705080052
:1043C0000901041400000804848303311448270001
:1043D000000000034800000000000000000000068C
:1043E0000302028209810311828104231403033131
:1043F0001455050000000003480000000000000004
:1044000000000002000282880685001083830207F4
:104410008883033115345600000784082700940070
:10442000001098047000000504020807121005101F
:1044300008090820931103311541350000071900C0
:104440000014740000062700001274060504091504
:104450001610081310111313059403311548130097
:1044600000117600000000000013071464004907E3
:104470001004101616131014101012192002033114
:104480001554520000150300000376000022480076
:104490000000000913071210171111151109152337
:1044A00090060331160130000000000348000000B0
:1044B0000000000000000009110710061409111582
:1044C00006081311890003311608090000000003D3
:1044D0009200000000000000000000070906090229
:1044E00012050626020211858401033116212600D9
:1044F0000000000392000000000000000000000324
:104500000202048307000011858305068703033137
:104510001628040000000003050000000000000051
:10452000000000810202818907868108888602894D
:104530008500033116344311760000000014111079
:1045400025000007840000820000008605838308A0
:104550008484810782010331164800156800000633
:10456000530000168900000000014700020000818E
:104570001003000800810115830003311654380030
:1045800000019600001098000002090000230302B9
:104590000200020711050109020703048600033126
:1045A0001701170000052216990031000010450080
:1045B0000002940206020310110507240508078370
:1045C0000103033117075600000000052200000018
:1045D0000000002143039204060207061508081292
:1045E000070810138701033117211200000326006A
:1045F0000003130000031300002500081105111229
:10460000161010161414131585850331172751132E
:104610003300001220000013270000036600001280
:104620001107130914141016131114138100033108
:10463000173430000000000392000000000000006A
:1046400000000009110911051512111507091317AA
:10465000878603311741080000000003480000006E
:1046600000000000000000080808060413040616F5
:10467000020209138483040100362900000849124C
:10468000200752000007840000000000020004051B
:104690001101020803080313120804010152390032
:1046A000000392139400000000041818300049829F
:1046B00000000081110082250081018384930401A0
:1046C000015917000000652570000000000000007F
:1046D000000588000281010110000027000102840A
:1046E0000190040102390800000588113200000021
:1046F000000784000007350810061308161014255B
:1047000009131685199004010245470000000003B3
:1047100092000000000000000000000911071006D0
:104720001510091506071300208304010252250005
:104730000000000348000000000000000000000727
:1047400009060701110606150503110308210401D6
:1047500002590400000000030500000000000000F2
:1047600000000007050503000902031300020614F8
:10477000901704010305420000000003050000003B
:1047800000000000000000020205018608820011FE
:10479000818304228610040103185900000392004B
:1047A0000039840000036605750000000081008761
:1047B00008858108868781170623040103253800B0
:1047C0000011110000128600001830015600490047
:1047D00000810001118481098483012403130401F1
:1047E0000332160000000000002352000000000009
:1047F000002303020081030111820009010003204C
:10480000121204010338550000052200002509009A
:104810000007840000029402020004021103012632
:104820000403058394090401035212007800000078
:104830000024780060000000002205030703090639
:10484000130506130907082307820401040529003C
:10485000000719065300000000120200000882073A
:1048600012081113180811140610140082160401FE
:1048700004120700000326226500000000047000F7
:1048800000004910120614071612111514131121F5
:1048900023010401052512000000001699043900C7
:1048A0000000000000176404050407081311071333
:1048B000131209111601040105315010980000006F
:1048C0000012861146000004700000070606100959
:1048D000141210140809120490070401054507007A
:1048E0000000000000200700000000000020090870
:1048F00011081007151110151108121516000401E2
:104900000631370000111100001098000012540009
:1049100000098000008201040781010800040217D9
:1049200082880401063815000005221220000000CC
:1049300000041812540000010200000411030108D1
:10494000070704208904040106445300000196016E
:10495000301694000001561777000000040302038C
:1049600011050409050509240084040106513000DD
:1049700000032601741317000003130104147004CC
:10498000030209101105050904040721160004019A
:1049900006513200000326017413170000031301AF
:1049A0000414700403020910110505090404072109
:1049B0001600040106581000000326000028860097
:1049C000000366057502940707020908160811130B
:1049D0000911111186120401074440000000000370
:1049E00092000000000000000000000201030184AA
:1049F00006840011838301061685040107511910EE
:104A000098000018730000114600000000000081AB
:104A100000010087078583088583002090890401B1
:104A200007575703920000000000000362000036A1
:104A3000600000810000838408818207848302244F
:104A40009508040108043603920000000000940356
:104A500001000000002941000081818108018210CD
:104A60000182038910880401083959000004572580
:104A7000270000000006790000000007110611124F
:104A800016111116120914240319040123345307B3
:104A900084013013070000072400000000034302D4
:104AA00001010402110304090200050403000401CA
:104AB0002339030000000000433576006000000346
:104AC000660490030500040512040510040409148B
:104AD00008880402041326023500000610000003B3
:104AE00001000024050294010301060416020411CA
:104AF00005080315020804020420050000039200C3
:104B000000185100000313120202450505010809AF
:104B1000150407120305061213810402042643003C
:104B20000009800174000000001202000013230439
:104B300010070909160810120606112108200402A0
:104B4000043322000000000000376400000000145D
:104B5000110000071206110812141013111010246E
:104B60008208040204400100000000000005330038
:104B70000000000000323508090811131909131646
:104B80000707131712820402052630000002610095
:104B900000291700000366073200000081008184AD
:104BA0001082002683818114031504020533090352
:104BB00092000000001035042200000000186281FD
:104BC00002020102110002110100001710920402FA
:104BD00005394700000000000032310000000000ED
:104BE00000127400030103061204011004020323DF
:104BF00085900402054626000000000043003100B5
:104C000000000000003480040500080512040512AD
:104C10000706052403840402055304000000000075
:104C200087326200000000094100490505040813AD
:104C300012060813071109191291040205594300BD
:104C40000000001830000001200000094100490563
:104C5000100609121412101410111117091404026D
:104C60000606210000052214810000000008360419
:104C70007000491009061013191012241014138320
:104C8000021104020613000000124101740000002A
:104C900000167304180000091108111319081315E0
:104CA00007091420218104020646120000000003B7
:104CB0000500000000000000000000020005008860
:104CC0000683001185830115131704020652510053
:104CD00000091500430000000015680000220500CF
:104CE000000181850885830985840013041204026C
:104CF00008055400000000039200000000000000BE
:104D00000000000507060500110204130001082435
:104D1000930404020812330000000003480000005E
:104D200000000000000000030304038109000011DB
:104D3000848206170593040208191200000000017E
:104D40007400000000000000000000000004008665
:104D500005838110858700209512040208255000E4
:104D600000000005220000000000003137000000B4
:104D700000010081108482108484001712810402D3
:104D80000832290000000008270000000000000091
:104D90000027940001000081118282088100021620
:104DA0001483040209111400000326217800000076
:104DB000000209031300000811061313161212153E
:104DC0001210122116150402091220109800000674
:104DD000970000114600000000294108110611103B
:104DE000151311141313131818120402091858116B
:104DF0007600000000025113270000000012741119
:104E000010081110151110161113161008190402AC
:104E100009253700000000034800000000000000E2
:104E200000000012110710081608091711061316C2
:104E30009110040209321500000000034800000030
:104E40000000000000000008100708001107061607
:104E50000303111483030402093854000000000303
:104E60004800000000000000000000050805058360
:104E70001002041500010801028804021018450000
:104E80000007840915000000001045000008820298
:104E90000202040513020213081005201602040280
:104EA0001025230000013021780062000000000579
:104EB0002203430605010705130404120708091419
:104EC0001382040210320204700000204700000424
:104ED00022000001560049050505070816050813BC
:104EE000060808010691040210384000000653121B
:104EF0002000000000094109930000050908100581
:104F00001710111509131101019604021730290019
:104F10000000000305000000000000000000000287
:104F2000020302870600811084840322848604021F
:104F300017434600000000230900000000000000A5
:104F40000018620181000201100002100002030536
:104F500005860402175024023500000000000001FD
:104F60008100000000313700010401001101060832
:104F70000102050017880402175703031300651880
:104F8000730000042200000418000001040204065B
:104F900015070410060206168518040218034100BE
:104FA00000006506100000000000000000269602C8
:104FB0000804050415040610091506868800040275
:104FC0001816580705000000000000060300000046
:104FD00000205808080710101513111411111101A1
:104FE00008820402182337000000000000021900A4
:104FF0000000000000377410090611131413121575
:105000000906170110880402183015062700000051
:105010000000000543000000002254111107121681
:105020001413111411081901008804021923241201
:105030005400000000012512060000083600490156
:10504000000102841183012483000182838204020F
:105050001930020000000000874015000000000029
:1050600000000002010205001100021000010221EF
:105070001007040219364100000196000012540086
:105080000003660000151904040009061600041147
:1050900002010619890404022016320000000003F0
:1050A000920000000000000000000008090808024B
:1050B0001205071503031015030804022023090035
:1050C00000000003050000000000000000000005D3
:1050D00002040086080000138282051685830402FC
:1050E0002023100000000003480000000000000022
:1050F00000000005070604811000051500020821C4
:10510000040104022036270549000016550000035B
:105110006200000000176400000400870484000996
:1051200082810206840104022043061490000012CA
:10513000200000162900000000000081000101820B
:105140000500831101030215821804022043370071
:1051500000000003480000000000000000000006FE
:1051600004050583110303138100082309100402B9
:1051700022092600000196082700000000047000A4
:10518000003137020102818209838311838600196D
:1051900092060402221605000000001045000000DF
:1051A000000000000025000100018102098283083F
:1051B00000810218910504022229220000006500E6
:1051C00000109800000000000032350003000404C5
:1051D00009050309018205020006040222360100C6
:1051E000000392104500620000062700001421030E
:1051F00004000209110607260303088300130402B2
:1052000022423900000980021700000000088800CF
:1052100000132302050506161309081310071219B7
:105220000809040222491700001111004300000080
:10523000001830020906860808030614161009141F
:105240001111130108000402225556000005220026
:1052500000078400000836000013720809071313C2
:10526000190913140808142303810403000601001C
:1052700000039200000062000005220000250003E8
:1052800002000506150405100102041581840403BB
:1052900000100300001111082700000000177728F4
:1052A00075073503040204101305044308091002AE
:1052B00007010403064731000000000043294900AC
:1052C000000000141100001013091505181313161F
:1052D00009121300810804030654090000000003AA
:1052E0004800000000000000000000121210130728
:1052F00018111118080813120302040307004800CC
:10530000000000034800000000000000000000084A
:105310001209100513050815040611031081040372
:1053200007072700000000034800000000000000FD
:10533000000000080608060009030527000208040B
:105340000804040308402600000000034800000091
:10535000000000000000000404070383090001139B
:1053600082820508101304030847040000000003AC
:105370004800000000000000000000010105018855
:105380000583812785840285028304030853430033
:105390000002821350000000000000230000008182
:1053A00000008200058684080081001912030403AE
:1053B0000907000000000023960000000000000024
:1053C0000009310002000202070200080707051762
:1053D0009002040309133902350130000000000275
:1053E00041010430320049000200000212020009AB
:1053F00002040404030204030920170000019600BC
:105400000020070060015600001372010401060528
:10541000140202110203051986010403092656002D
:10542000000915056600000000104500000637045D
:1054300005030911160805110707081908070403D1
:10544000093334000011760000037600001934009F
:10545000000147060606091118080813070509097F
:105460000681040309401300001503013000000009
:1054700000219600000049071005111214121115A1
:10548000131313110002040309423500000196159D
:10549000680000000000002509000007080712133B
:1054A00015111013151313101006040309425500AB
:1054B00000000006530000000000002666000009FE
:1054C0000906111116111024121613841104040375
:1054D0000943110235000000870000030100003578
:1054E0000300490808080910181111241115128326
:1054F0001003040309465100000000000011600180
:105500002000000000343108110614041710101692
:10551000091113220806040310000900000000030B
:1055200092000000000000000000000810090805BB
:1055300014080916060812150884040310395905C1
:105540004900000915000004220000146400000254
:105550000001050106040209010402178204040384
:1055600010463800000849043500000000104500CE
:105570000010780302010206110304100504062539
:10558000018104031053160000071904790000007C
:1055900000109800001029040501070513040811E4
:1055A00004030610021004031059550000013000D6
:1055B000433733000000000052034306050508107E
:1055C000160605120908082404860403110634008F
:1055D0000004571394000000000522146400000426
:1055E0000907081115080913131311008109040391
:1055F00011131200000980069700000000135903E0
:105600006600000711071111161313141316141155
:105610000600040311195100000000000005960067
:10562000000000000031371013071409171114246B
:1056300008081210000704031126290000000003C7
:1056400048000000000000000000001011091110C7
:105650001712111708081521080204031133070057
:10566000000000039200000000000000000000089D
:105670001109090412081016060513020701040394
:10568000113946000000000348000000000000003F
:10569000000000060808060011040714000308199A
:1056A0000002040311530300000000030500000082
:1056B0000000000000000001030200860784811141
:1056C00086830106020004031159420000032615D7
:1056D000680000000003130000151900000000001E
:1056E00006000010848302098103040312062004CB
:1056F000700000000032620422000002610000001D
:105700000200828507020011010103220004040344
:105710001212590000006523090000000000520029
:1057200000093100020004061100030803030716F4
:1057300000070403121937000009150000241500A2
:10574000001464000000980201040104130202091D
:10575000030406220703040312261500000522177E
:1057600086003100000575000005390206031109A5
:105770001307081205060911020104031239330048
:10578000000000000014430000000000002549074D
:105790000907141019081215060810000003040365
:1057A000124611039200000653000003620000003D
:1057B0000017641111061113151211151210170894
:1057C00000060403125250000008490000000000C7
:1057D0000011501725000011100711151711102482
:1057E000151116850808040312592800000000034B
:1057F00092000000000000000000001111091306D3
:1058000018091216090813220003040313060700DF
:105810000000000348000000000000000000000835
:1058200012081103140610170405131612030403BB
:1058300013124500000000034800000000000000B3
:1058400000000007070705001004051401011022DD
:10585000018604031319240000000003480000001F
:1058600000000000000000040207038510810114FD
:10587000008305168406040323030800000130009A
:105880000035450000005202612647020203020271
:10589000110504110406060305060403230406008B
:1058A0000005880043203900000418088800000122
:1058B0000502020511050522040505030805040477
:1058C00002095202350000165500000120000000B8
:1058D00000107805050002061105051005070703ED
:1058E0000787040402163003130000204701250334
:1058F00001000000000147030704111111090811FC
:105900001213100901010404022948000012410485
:10591000350000000019340000073511130510167A
:1059200020101116131513108600040402362600E9
:1059300000006500001882000000001882000009C5
:1059400013081212181211161315141908840404DE
:1059500006485000000719178600000000052202C3
:10596000090000020401050610040426110707833C
:105970001100040408412809410000000000001043
:1059800025000000002352101105110918101120E4
:105990000505168284040404093453101900000814
:1059A00027000007240000115000490001000301F6
:1059B0001182042104080083861104040941310086
:1059C0000003921699000000000575000009800090
:1059D0000301050509000009060902030106040484
:1059E000094810000007190043069000000836001F
:1059F00000186206050005060908051004050820C0
:105A000007110404095448000003920174021900AC
:105A100000026100002598050802071113100721F4
:105A2000121010820084040410012700000261009B
:105A300000006201200313219601470509070807AA
:105A400013121015121111148803040410144402C7
:105A50003500001917000003010000047000001059
:105A600010081511190913191214120181150404D3
:105A7000102123000005880610000000000888128D
:105A800054000010130812112111101613161216CB
:105A9000050204041134260000000000870596006A
:105AA000000000303201960609040808150511129D
:105AB00006080914060004041141050470000022C0
:105AC00022000004220000000004900810041308C3
:105AD00011050611020505220319040411474300AC
